:020000040800F2
:10000000400700208901000869050008C9040008AC
:1000100065050008310200088B0D00080000000093
:100020000000000000000000000000005107000870
:100030001D03000800000000DD0500087509000828
:10004000A3010008A3010008A3010008A301000800
:10005000A3010008A3010008A3010008A3010008F0
:10006000A3010008A3010008A3010008A3010008E0
:10007000A3010008A3010008A3010008A3010008D0
:10008000A3010008A3010008A3010008A3010008C0
:10009000A3010008A3010008A3010008A3010008B0
:1000A000A30100083D0A0008A3010008A3010008FD
:1000B000A3010008A3010008A3010008A301000890
:1000C000A3010008A3010008A3010008A301000880
:1000D000A3010008650B0008A3010008A3010008A4
:1000E000A3010008A3010008A301000800F002F822
:1000F00000F03AF80AA090E8000C82448344AAF188
:100100000107DA4501D100F02FF8AFF2090EBAE885
:100110000F0013F0010F18BFFB1A43F0010318473B
:10012000540E0000740E0000103A24BF78C878C145
:10013000FAD8520724BF30C830C144BF04680C60ED
:10014000704700000023002400250026103A28BF35
:1001500078C1FBD8520728BF30C148BF0B60704739
:100160001FB51FBD10B510BD00F033F81146FFF7E5
:10017000F7FF00F08DFE00F051F803B4FFF7F2FF37
:1001800003BC00F039FE00000948804709480047D9
:10019000FEE7FEE7FEE7FEE7FEE7FEE7FEE7FEE737
:1001A000FEE7FEE704480549054A064B7047000094
:1001B00079090008ED0000084001002040070020F8
:1001C000400300204003002070477047704770478D
:1001D0007047754600F028F8AE460500694653465C
:1001E00020F00700854618B020B5FFF7DBFFBDE81B
:1001F00020404FF000064FF000074FF000084FF08E
:10020000000B21F00701AC46ACE8C009ACE8C0091E
:10021000ACE8C009ACE8C0098D4670470446AFF3AE
:1002200000802046FFF7A9FF00487047DC0000204F
:1002300000BFFEE710B500F055FB00F0FFFA1948CB
:10024000007858BB184890F84900C101164890F84A
:100250004A0041EA8011144890F84B0041EA4011ED
:10026000114890F84C0041EA00100F4991F84510F0
:1002700040EAC1010C4890F8460041EA80010A4872
:1002800090F8470041EA4000074991F848100843B8
:10029000C1B20448817001200249087000F03AF9A7
:1002A00010BD000014000020480000205A2809D189
:1002B0001949097831B90021174A5170012111708B
:1002C0000021D17114490978012924D11249CA7930
:1002D000891C8854891EC979491C0F4AD171A528E7
:1002E00003D11146C979052903D10B49C9790529DB
:1002F00005DD0021084A51701170D1710BE0A5286D
:1003000009D10549C979052905D10121024A517050
:1003100000211170D17170471B00002070472DE93A
:10032000F04102460025002600200023002400277B
:1003300091F803C00CF00F0591F803C00CF0100CFD
:10034000BCF1000F03D091F802C04CEA050591F80A
:1003500000C0BCF1000F31D0146800202BE04FF03A
:10036000010C0CFA00F3B1F800C00CEA03069E423F
:1003700020D183004FF00F0C0CFA03F7BC4305FAB1
:1003800003FC4CEA040491F803C0BCF1280F06D129
:100390004FF0010C0CFA00FCC2F814C00AE091F80E
:1003A00003C0BCF1480F05D14FF0010C0CFA00FC62
:1003B000C2F810C0401C0828D1D31460B1F800C0A6
:1003C000BCF1FF0F34DD546800202EE000F1080C72
:1003D0004FF0010808FA0CF3B1F800C00CEA03066C
:1003E0009E4221D183004FF00F0C0CFA03F7BC435F
:1003F00005FA03FC4CEA040491F803C0BCF1280F91
:1004000005D100F1080C08FA0CF8C2F8148091F834
:1004100003C0BCF1480F07D100F1080C4FF00108F0
:1004200008FA0CF8C2F81080401C0828CED354609B
:10043000BDE8F081F0B50A46002300240021002524
:1004400000F00046B6F1004F02D11D4EF16901E007
:100450001B4E7168C0F3034583B200F44016B6F535
:10046000401F08D121F07061154E766826F0706645
:10047000134F7E6012E000F48016B6F5801F06D19F
:10048000032606FA05F4A14341F0706106E0460D2B
:10049000360103FA06F6B14341F0706122B1460D10
:1004A000360103FA06F6314300F00046B6F1004F7C
:1004B00002D1034EF16101E0014E7160F0BD000018
:1004C000000001400161704700BFFEE708B501214F
:1004D000042000F085F80121084600F081F8012190
:1004E0000948FFF7A7FF1020ADF800008DF80300C2
:1004F00003208DF8020069460448FFF710FF102121
:100500000248FFF7DFFF08BD00023000000801408D
:100510007047000010B54021104800F065FB01282D
:100520001BD10F480078012817D15A200C49487078
:10053000A5210B4841718279401C815C074800F07D
:1005400020FC07488079401C05498871084680795D
:10055000042802DD00200870887110BD00380140B9
:100560001400002000BFFEE77047000070B50021B6
:1005700000230F22C47804B3154C246804F4E0640B
:10058000C4F5E064210AC1F10403CA40447804FAC6
:1005900003F184781440214309010E4C0678A155DB
:1005A000047804F01F050124AC4005786D11AD00FE
:1005B00005F1E025C5F8004109E0047804F01F05C5
:1005C0000124AC40044D0678761145F8264070BDF4
:1005D0000CED00E000E400E080E100E07047000086
:1005E00029B1064A92690243044B9A6104E0034A26
:1005F00092698243014B9A617047000000100240EB
:1006000030B500210022002400232D4D6D6805F037
:100610000C0121B1042905D0082923D105E0294D79
:10062000056022E0274D05601FE0254D6D6805F44B
:100630007012234D6D6805F48034022505EB92425B
:100640001CB9214D554305600BE01D4D6D6805F447
:1006500000351DB11C4D5543056002E0194D554351
:10066000056002E0174D056000BF00BF144D6D68C6
:1006700005F0F0010909154D6B5C0568DD4045602A
:100680000F4D6D6805F4E061090A104D6B5C45681B
:10069000DD4085600A4D6D6805F46051C90A0B4D57
:1006A0006B5C4568DD40C560054D6D6805F44041F3
:1006B000890B074D6B5CC568B5FBF3F5056130BD73
:1006C0000010024000127A0000093D0028000020BE
:1006D0003800002008B501210420FFF781FF012127
:1006E0000820FFF77DFF01211020FFF779FF01218E
:1006F0000846FFF775FF01211148FFF79BFE4FF4F5
:100700000040ADF8000028208DF8030069460D4830
:10071000FFF705FE0820ADF8000028208DF8030043
:1007200069460948FFF7FBFD4FF44040ADF8000073
:1007300028208DF8030069460448FFF7F0FD08BD46
:100740000002300000080140000C01400010014090
:10075000704710B500F002F810BD00000CB5002085
:10076000019000903348006840F4803031490860BF
:1007700000BF3048006800F4003000900198401C31
:100780000190009818B90198B0F5A06FF1D12948EF
:10079000006800F4003010B10120009001E000205A
:1007A00000900098012843D12348006840F01000D1
:1007B000214908600846006820F0030008600846E8
:1007C000006840F0020008601A4840681949486013
:1007D0000846406848600846406840F480604860C9
:1007E0000846406820F47C1048600846406840F4A1
:1007F000E81048600846006840F08070086000BF5C
:100800000C48006800F000700028F9D009484068E2
:1008100020F00300074948600846406840F00200A5
:10082000486000BF0348406800F00C000828F9D178
:100830000CBD000000100240002002401CB5002248
:10084000009201920020002100BF0CE000222DF850
:1008500010201F4A135C521D02EB00121C4C24791D
:100860001355421CD0B20428F0DB002012E0002116
:100870000CE03DF81030164A521D02EB0012525C9B
:100880001A4492B22DF810204A1CD1B21029F0DB84
:10089000421CD0B20428EADB00200BE03DF8102017
:1008A000082A01DD012300E00023094A45321354E0
:1008B000421CD0B20428F1DB054A12790F2A03DA70
:1008C000034A1279521C00E00022014B1A711CBD30
:1008D0004800002010B500F05BFA00F073FAFFF753
:1008E000F9FE10BD14480068144908701448D0F887
:1008F0000C0148701248D0F8000188701048D0F8F8
:100900000401C8700E48D0F83C0181F849000D4838
:100910000068C1B2094880F84A100B480068C1B2AB
:10092000064880F84B100848001D0068C1B2034813
:1009300080F84C1070470000080121424800002058
:10094000000021420C81214238012242042808D1B2
:100950004FF0E021096941F004014FF0E0221161FC
:1009600007E04FF0E021096921F004014FF0E02297
:10097000116170477047000010B51348006840F0DF
:1009800001001149086008464068104908400E49B6
:100990004860084600680E4908400B490860084650
:1009A000006820F4802008600846406820F4FE00BB
:1009B00048604FF41F008860FFF7CBFE4FF00060E7
:1009C0000449086010BD0000001002400000FFF85C
:1009D000FFFFF6FE08ED00E07FB505460C4601215D
:1009E000C802FFF7FDFDADF80850ADF80440002047
:1009F000ADF80A00ADF806008DF80C0001A90E480C
:100A000000F05EF8012211460B4800F04FF8192063
:100A10008DF8000000208DF8010003208DF8020001
:100A200001208DF803006846FFF7A0FD0121024870
:100A300000F01FF87FBD0000002C014010B501211F
:100A4000084800F022F860B10121064800F00EF8D5
:100A500005480068401C04490860FFF759FDFFF78E
:100A6000E9FB10BD002C014024000020CA43028293
:100A7000704721B1028842F00102028004E002883E
:100A80004FF6FE731A400280704730B502460020D0
:100A900000230024158A05EA0103958905EA01046B
:100AA00013B10CB1012000E0002030BD1AB18389E0
:100AB0000B43838102E083898B438381704700006D
:100AC000002202881D4B98420ED01D4B98420BD03D
:100AD000B0F1804F08D01B4B984205D01A4B98427A
:100AE00002D01A4B984204D14FF68F731A404B88AC
:100AF0001A43174B984207D0164B984204D04FF632
:100B0000FF431A40CB881A4302808B8883850B8869
:100B100003850A4B98420BD0094B984208D00E4BE4
:100B2000984205D00D4B984202D00D4B984201D10E
:100B30000B7A03860123838270470000002C01405A
:100B4000003401400004004000080040000C004058
:100B500000100040001400400040014000440140EB
:100B60000048014010B540F225510B4800F049F80B
:100B700088B12021084800F013F840F225510648BA
:100B800000F017F8044800F0F7F804490870084628
:100B90000078FFF78BFB10BD0038014046000020B5
:100BA00001F40072B2F5007F00D100BFCA43028099
:100BB000704710B50022002340F66A14A14200D10C
:100BC00000BF0A1201249440A3B2DC43048010BD8C
:100BD00021B1828942F40052828104E082894DF67B
:100BE000FF731A408281704702460020B1F5007FF2
:100BF00000D100BF13880B400BB1012000E00020A2
:100C0000704770B50246002400230025002040F6FE
:100C10006A16B14200D100BFC1F3421501F01F03B3
:100C2000012606FA03F3012D02D19689334006E02E
:100C3000022D02D1168A334001E0968A33400C120D
:100C4000012606FA04F41688344013B10CB10120D1
:100C500000E0002070BDF0B503460024002600250A
:100C6000002040F66A17B94200D100BF1846C1F310
:100C7000421401F01F06012707FA06F5012C01D1E5
:100C80000C3004E0022C01D1103000E014301AB115
:100C900007682F43076002E00768AF430760F0BDB5
:100CA0002DE9F04786B005460E460024A24600BF57
:100CB000A1460027B08900B100BF2F462C8A4CF610
:100CC000FF700440F08804432C82AC894EF6F31088
:100CD0000440B08831890843718908430443AC81DA
:100CE000AC8A4FF6FF400440B0890443AC8201A8AF
:100CF000FFF786FC1F48874202D1DDF810A001E013
:100D0000DDF80CA0A88900F4004040B10AEBCA004D
:100D100000EB0A1031684900B0FBF1F807E00AEB7C
:100D2000CA0000EB0A1031688900B0FBF1F86420BA
:100D3000B8FBF0F004012009642101FB1089A889A7
:100D400000F4004040B1322000EBC900B0FBF1F0EC
:100D500000F00700044308E0322000EB0910642192
:100D6000B0FBF1F000F00F0004432C8106B0BDE8A9
:100D7000F08700000038014001468888C0F3080071
:100D80007047C1F308028280704700BFFEE7000091
:100D900008B501210420FFF723FC0320ADF8000073
:100DA00028208DF8030003208DF8020069460448CE
:100DB000FFF7B5FA03210248FFF784FB08BD0000E6
:100DC0000008014008B501210420FFF709FC0C20B0
:100DD000ADF8000028208DF8030003208DF80200F4
:100DE00069460448FFF79BFA0C210248FFF76AFBAB
:100DF00008BD000000080140014600BF7047000028
:100E000010B56FF00400FFF7A1FD0A4800680A4919
:100E1000B0FBF1F0094908700846007800EB40018A
:100E2000C1EBC0104FF6FF7101EAC0000449088011
:100E300010BD00000000002000127A003C000020DD
:100E40003E0000200146114A12884A434FF0E02339
:100E50005A6100229A611A46126942F001021A612F
:100E600000BF4FF0E022106900F001021AB100F457
:100E70008032002AF5D04FF0E022126922F0010200
:100E80004FF0E0231A6100229A6170473E00002073
:100E9000FFF7B6FFC820FFF7D5FF4FF4615000F011
:100EA00019F8FFF713FBFFF715FD40F2CF21C7201C
:100EB000FFF792FD0BE006480068012803D10449C2
:100EC0005431086003E00020014954310860F2E722
:100ED0003C01214210B586B00446012144F20400D1
:100EE000FFF77EFB4FF40070ADF8140003208DF87F
:100EF000160018208DF8170005A91C48FFF70FFAF7
:100F00004FF48060ADF8140004208DF8170005A997
:100F10001648FFF704FA25208DF8000003208DF80D
:100F200001008DF8020001208DF803006846FFF7EC
:100F30001DFB01940020ADF80800ADF80A00ADF8E3
:100F40000C00ADF810000C20ADF80E0001A9084807
:100F5000FFF7A6FE012240F225510548FFF77BFE70
:100F600001210348FFF734FE06B010BD0008014020
:100F700000380140940F00080000002048000000E5
:100F800028010008DC0F000848000020F8060000D7
:100F90004401000800A24A04000000000000000014
:100FA0000102030406070809005A000000A500001A
:100FB0000000000000000000000000000000000031
:100FC00001020304010203040607080902040608DB
:0C0FD00000000000000000000000000015
:04000005080000ED02
:00000001FF
